S015000046696E616C5F50726F6A6563742E73726563EF
S113000067C0000082C0000080C000007EC0000005
S11300107CC000007AC0000078C0000076C00000F8
S113002074C0000072C0000070C000006EC0000008
S11300306CC000005FC5000068C0000066C000001E
S113004064C0000062C0000060C000005EC0000028
S11300505CC000005AC0000058C0000056C0000038
S113006054C0000052C0000050C000004EC0000048
S11300704CC000004AC0000048C0000046C0000058
S113008044C0000042C0000040C0000039035803CF
S113009058035803580358035803170358035803C5
S11300A058035803580328033A024B025C026D02BA
S11300B07E028F02A002B102C20258035803580301
S11300C05803580358035803D302E402F502060305
S11300D011241FBECFEFD0E4DEBFCDBF11E0A0E0FE
S11300E0B1E0E0EFFEE000E00BBF02C007900D922C
S11300F0AC3BB107D9F722E0ACEBB1E001C01D92F3
S1130100A332B207E1F732D5F1C67ACF1816190631
S11301105CF00895000021503109E1F74F5F5F4F13
S11301204817590729F4089540E050E077E063E068
S1130130272F362FEFCF469882B9479A0000479869
S113014082E090E0E3CF089581E0F5CF0895813116
S113015018F48158F0CF08958155EDCF089584E6C1
S113016090E0D4DF88E3E7DF86E0E5DF8FE0E3DFDC
S113017081E0E1DF8AE090E0C9CF0895469A82B930
S1130180479A0000479881E090E0C0CF08950F930C
S11301901F93CF93DF93182FEB01D6DF8881882339
S11301A051F001E0010F812FD2DF8991E7DF102F99
S11301B088818111F6CFDF91CF911F910F9108951E
S11301C08FEE85B90000189B44C083B1809581FDF2
S11301D042C083B1809582FD40C083B1809583FD88
S11301E03EC08FED85B90000189B3BC083B180955C
S11301F081FD39C083B1809582FD37C083B180957C
S113020083FD35C08FEB85B90000189B32C083B1E4
S1130210809581FD30C083B1809582FD2EC083B16D
S1130220809583FD2CC08FE785B9000093B190952C
S1130230892F817090FD25C093B1909591FD23C0C5
S113024093B1909592FD21C093B1909593FD1FC0F9
S1130250089581E3089582E3089583E3089581E492
S1130260089584E3089585E3089586E3089582E478
S1130270089587E3089588E3089589E3089583E45E
S113028008958AE2089580E3089583E2089584E45A
S1130290089581309105C9F03CF48F3F2FEF920708
S11302A021F1892B41F06AC08230910529F1833014
S11302B09105A9F063C031E020E0809117028130FC
S11302C009F030E0832F922F0AC08091CF01813052
S11302D009F057C08093140283E090E04CC000976B
S11302E021F08130910541F046C01092CE01109268
S11302F0CD0180E090E03FC063DF8093CC0190911A
S11303000D0291112AC0833441F5E091CD01F0E052
S1130310E854FE4F8081803141F480911D02813484
S1130320C1F481E08093CF0118C0803241F4809100
S11303301D02823471F481E08093CF010EC08034B9
S113034041F480911D02833421F481E08093CF0134
S113035004C06DE171E081E01ADF7FD563E070E0F5
S1130360E3D48093CD019927FC01E854FE4F8081AA
S11303708BB981E090E080931E0208958FEF9FEF88
S1130380FACF82E090E0F7CF81309105C1F044F4D8
S11303908F3F2FEF920709F45EC0892B51F085C17E
S11303A08330910509F454C0DCF0049709F494C136
S11303B07CC180911702813009F04DC093C18091B6
S11303C0C401813039F468E271E0E1DE81E08093B8
S11303D00D0276C18091C301813009F083C15AC1F5
S11303E0809116019091150189136AC19091C201FF
S11303F0953009F065C18823C1F02091BD01909129
S11304000E02291741F004C031912D91321751F099
S1130410109204010FC0EEEBF1E0AFE0B2E090E027
S113042083549E4FE817F90779F7809104018130CE
S113043009F452C164E371E081E0A9DE1092C401C1
S11304401092C20181E08093040110920D024AC10E
S11304501092C30147C11092C20180E090E02DC107
S113046081E08093C40190E028C181E08093C301BE
S113047090E023C181E390E081DE8091C201E82F06
S1130480F0E0E354FE4F91E390838F5F8093C201C9
S113049082E090E012C182E390E070DE8091C201BC
S11304A0E82FF0E0E354FE4F92E390838F5F809354
S11304B0C20182E090E001C183E390E05FDE8091BD
S11304C0C201E82FF0E0E354FE4F93E390838F5F83
S11304D08093C20182E090E0F0C084E390E04EDEBD
S11304E08091C201E82FF0E0E354FE4F94E390833F
S11304F08F5F8093C20182E090E0DFC085E390E0EB
S11305003DDE8091C201E82FF0E0E354FE4F95E315
S113051090838F5F8093C20182E090E0CEC086E337
S113052090E02CDE8091C201E82FF0E0E354FE4F0E
S113053096E390838F5F8093C20182E090E0BDC018
S113054087E390E01BDE8091C201E82FF0E0E354E2
S1130550FE4F97E390838F5F8093C20182E090E027
S1130560ACC088E390E00ADE8091C201E82FF0E09D
S1130570E354FE4F98E390838F5F8093C20182E03F
S113058090E09BC089E390E0F9DD8091C201E82FFF
S1130590F0E0E354FE4F99E390838F5F8093C201B0
S11305A082E090E08AC081E490E0E8DD8091C201BD
S11305B0E82FF0E0E354FE4F91E490838F5F809343
S11305C0C20182E090E079C082E490E0D7DD8091BE
S11305D0C201E82FF0E0E354FE4F92E490838F5F72
S11305E08093C20182E090E068C083E490E0C6DDBD
S11305F08091C201E82FF0E0E354FE4F93E490832E
S11306008F5F8093C20182E090E057C084E490E061
S1130610B5DD8091C201E82FF0E0E354FE4F94E48D
S113062090838F5F8093C20182E090E046C08AE2AB
S113063090E0A4DD8091C201E82FF0E0E354FE4F86
S11306409AE290838F5F8093C20182E090E035C08C
S113065080E390E093DD8091C201E82FF0E0E35461
S1130660FE4F90E390838F5F8093C20182E090E01D
S113067024C083E290E082DD8091C201E82FF0E0A3
S1130680E354FE4F93E290838F5F8093C20182E034
S113069090E013C061E471E081E079DD80911D0296
S11306A090E06CDD83E090E008C08FEF9FEF05C021
S11306B082E090E002C081E090E0809321020895FE
S11306C07FDD8093BC0190E0FC01B397E232F10539
S11306D078F7EA5BFF4F5DC381E08093150284E005
S11306E090E0EBCF6DDD8093BC01833209F4B8CE8A
S11306F08A3209F4BACEDFCF813081F0E1ECF0E048
S1130700808188618083E2ECF0E080818660808370
S113071083E38093C4001092C5000895E9ECF0E0EF
S1130720808188618083EAECF0E080818660808348
S113073083E38093CC001092CD000895813029F496
S11307408091C800882384F008958091C000882394
S1130750ACF4A6ECB0E0E0ECF0E08C918093D50131
S113076080818823D4F30895AEECB0E0E8ECF0E0A7
S11307708C918093D50180818823D4F308956130CE
S113078041F0E0ECF0E0908195FFFDCF8093C6004E
S11307900895E8ECF0E0908195FFFDCF8093CE00C2
S11307A008958130910509F454C03CF48F3F2FEF34
S11307B0920759F0892B71F07DC08230910509F4BC
S11307C04EC0039709F46FC075C068E471E081E01E
S11307D0DEDC7BC08091D401813091F580911801D9
S11307E090E03ED33AD363E070E09ED28093D3018D
S11307F09927FC01E05FFE4F808180931D02909158
S1130800130291110AC09CE3909314019AE090930F
S1130810130193E0909317010BC0913049F49CE0CD
S11308209093140192E09093130191E09093170137
S11308309091C00095FF02C060E0A1DF85DC4DC04F
S11308408091D201813009F040C066E671E09FDCFE
S113085049C080911502813009F03FC024C08091C5
S1130860D20181113FC068E471E081E090DC2DC0C9
S113087081E08093D40180E090E024C081E0809303
S1130880D20180E090E01EC0109213021092D201B7
S113089082E090E017C081E0809313021092D201AD
S11308A082E090E00FC06EE771E081E070DC83E0ED
S11308B090E008C08FEF9FEF05C080E090E002C099
S11308C082E090E080931F0208957ADC8093D10146
S11308D0813471F2823491F2F0CF81E08093170277
S11308E090E0F0CF6DDC8093D101813469F28234E1
S11308F091F2E6CF813041F0E0ECF0E08081882392
S1130900ECF78091C6000895E8ECF0E0808188233C
S1130910ECF78091CE000895009759F024F40196E5
S113092009F44BC04FC08130910569F0029731F052
S113093049C080911402813031F413C080911702B0
S1130940813009F03AC08091C80088230CF03DC082
S113095081E0D0DF81E080931402F0DE80E090E05B
S113096036C07BD28F709078992324F40197806FDE
S11309709F6F01968093CB01A091CA01B0E0AB5365
S1130980BE4F9927FC01E855FE4F80818C9310924D
S1130990140267E871E081E0FADBE091CA01F0E05B
S11309A0EB53FE4F808190E0E9DB8091CA018F5FB9
S11309B08093CA0181E090E00AC01092CA0182E0EB
S11309C090E005C08FEF9FEF02C080E090E080933D
S11309D02002089527E030E058E0E82FF0E058B90D
S11309E048B1BF01022E02C0759567950A94E2F7DB
S11309F0962F9170942B98B9429A2150310978F727
S1130A00419A18B80895CF93DF93009719F001978E
S1130A1059F012C091E080E020911702213009F0D2
S1130A2090E0C92FD82F0AC08091D0018639A8F44C
S1130A308F5F8093D00111C0C0E0D0E0209721F0F7
S1130A40C130D10579F509C080910501C3DF109249
S1130A50D0018EE18093140125C0C091D001609132
S1130A6013018C2F55D1911106C0809105018695F3
S1130A7080930501AFDF80911401C81311C08091E8
S1130A80C00085FF07C060E082E079DE6DE971E0B7
S1130A9081E07DDB81E080931602C1E0D0E002C0FA
S1130AA0C1E0D0E0CE01DF91CF9108958BE0809337
S1130AB081008DE790E0909389008093880082E024
S1130AC080936F0010928500109284008091190128
S1130AD090911A01A0911B01B0911C0180931802FE
S1130AE090931902A0931A02B0931B028FB78068E7
S1130AF08FBF08951F920F920FB60F9211248F93F8
S1130B009F93AF93BF938091180290911902A09183
S1130B101A02B0911B020197A109B109809318022E
S1130B2090931902A0931A02B0931B02892B8A2B6B
S1130B308B2B99F481E080931C0280911901909190
S1130B401A01A0911B01B0911C018093180290938B
S1130B501902A0931A02B0931B02BF91AF919F9107
S1130B608F910F900FBE0F901F9018958FEF81B942
S1130B7012B890EF94B99FE095B99FEE97B990E1C0
S1130B8098B98AB91BB8E2E0F2E080830F2EFAE04C
S1130B90CF2ED12CE12CF12CF02DC182D282E38214
S1130BA0F482158216821782108621ED33E0328793
S1130BB02187E7EFF1E0808344E650E060E070E0F5
S1130BC0418352836383748315821682178210864D
S1130BD023E035E032872187ECEEF1E080834EE1BB
S1130BE050E060E070E04183528363837483158234
S1130BF016821782108629E431E032872187E1EEDC
S1130C00F1E0808341835283638374831582168267
S1130C10178210862CE834E032872187E6EDF1E074
S1130C20808341835283638374831582168217827F
S1130C30108684EC91E09287818780E05DDD81E01D
S1130C405BDDC0921901D0921A01E0921B01F0926F
S1130C501C01C0921802D0921902E0921A02F0927A
S1130C601B0224DF7CDA8091180190E0F9D006E0C1
S1130C7011E00F2EF0E1EF2EF1E0FF2EF02D86B102
S1130C80809580932202E8015E01C880D980D60154
S1130C9015964D915D916D917C91189711968D915A
S1130CA09D910D90BC91A02D481759076A077B07A9
S1130CB089F4F60180810184F285E02D082E000C70
S1130CC0990B0995D6018C93E881F98115821682D6
S1130CD017821086D501ED91FC912296858196812B
S1130CE0A781B0850196A11DB11D85839683A78335
S1130CF0B087CE15DF0541F680911C028823E1F30D
S1130D0010921C0280911801865F80931801B7CF5E
S1130D10991B79E004C0991F961708F0961B881F49
S1130D207A95C9F78095089597FB072E16F40094D9
S1130D3006D077FD08D036D007FC05D03EF4909558
S1130D4081959F4F0895709561957F4F0895A1E215
S1130D501A2EAA1BBB1BFD010DC0AA1FBB1FEE1F31
S1130D60FF1FA217B307E407F50720F0A21BB30B7C
S1130D70E40BF50B661F771F881F991F1A9469F7F8
S1130D8060957095809590959B01AC01BD01CF0154
S1130D900895EE0FFF1F0024001C0BBE0790F69170
S1130DA0E02D0994AA1BBB1B51E107C0AA1FBB1F5E
S1130DB0A617B70710F0A61BB70B881F991F5A95E3
S1130DC0A9F780959095BC01CD0108958F929F92CB
S1130DD0AF92BF92CF92DF92EF92FF92CF93DF93C5
S1130DE0EC01688179818A819B8161157105810596
S1130DF0910521F464E279ED8BE597E02DE133EF81
S1130E0041E050E038D049015A019B01AC01A7EA06
S1130E10B1E44DD06B017C01ACEEB4EFA5019401BB
S1130E2052D0DC01CB018C0D9D1DAE1DBF1DB7FF43
S1130E3003C00197A109B04888839983AA83BB831F
S1130E409F77DF91CF91FF90EF90DF90CF90BF908D
S1130E50AF909F908F900895B9CF80E091E0B6CF86
S1130E60A0E0B0E08093000190930101A0930201FF
S1130E70B09303010895052E97FB16F400940FD048
S1130E8057FD05D064DF07FC02D046F408C0509536
S1130E904095309521953F4F4F4F5F4F0895909562
S1130EA08095709561957F4F8F4F9F4F08950FD018
S1130EB0A59F900DB49F900DA49F800D911D1124AA
S1130EC00895B7FFF4CFF3DF821B930B0895A29F1D
S1130ED0B001B39FC001A39F700D811D1124911D0A
S1130EE0B29F700D811D1124911D0895F894FFCFB8
S1130EF001000000017F0202F701EC01E101D601CB
S1130F00414258051E0505030101000000496E63B6
S1130F106F72726563742100496E70757420436F3B
S1130F2064653A0057726F6E6720496E707574215C
S1130F30004D6F64656C3A00412E20506C6179203D
S1130F402020202020202020422E2044696666692B
S1130F5063756C747900412E204E6F726D616C2044
S1130F60202020202020422E204861726400596FE6
S1130F70752077696E210050757A7A6C6520446F0C
S1130F806E652120202020436F64653A0047616D1F
S1130F9065204F7665722100313233343536373867
S10F0FA03930414243442A234020100011
S9030000FC
