:100000006EC000008AC0000088C0000086C00000EA
:1000100084C0000082C0000080C000007EC00000DC
:100020007CC000007AC0000078C0000076C00000EC
:1000300074C0000030C7000070C000006EC0000037
:100040006CC000006AC0000068C0000066C000000C
:1000500064C0000062C0000060C000005EC000001C
:100060005CC000005AC0000058C0000056C000002C
:1000700054C0000052C0000050C000004EC000003C
:100080004CC000004AC0000048C0000072020C02D0
:100090001402310268026B026E028A03C203C203B9
:1000A000C203C203C203C2036803C203C203C20382
:1000B000C203C20379038B029C02AD02BE02CF02CF
:1000C000E002F10202031303C203C203C203C2032C
:1000D000C203C203C203240335034603570311249A
:1000E0001FBECFEFD0E4DEBFCDBF12E0A0E0B1E095
:1000F000E4EBF2E100E00BBF02C007900D92AA32E0
:10010000B107D9F722E0AAE2B2E001C01D92AD39F1
:10011000B207E1F7FCD60C94580972CF18161906ED
:100120005CF00895000021503109E1F74F5F5F4F07
:100130004817590729F4089540E050E077E063E05C
:10014000272F362FEFCF469882B9479A000047985D
:1001500082E090E0E3CF089581E0F5CF089581310A
:1001600018F48158F0CF08958155EDCF089584E6B5
:1001700090E0D4DF88E3E7DF86E0E5DF8FE0E3DFD0
:1001800081E0E1DF8AE090E0C9CF0895469A82B924
:10019000479A0000479881E090E0C0CF08950F9300
:1001A0001F93CF93DF93182FEB01D6DF888188232D
:1001B00051F001E0010F812FD2DF8991E7DF102F8D
:1001C00088818111F6CFDF91CF911F910F91089512
:1001D0008FEE85B90000189B44C083B1809581FDE6
:1001E00042C083B1809582FD40C083B1809583FD7C
:1001F0003EC08FED85B90000189B3BC083B1809550
:1002000081FD39C083B1809582FD37C083B180956F
:1002100083FD35C08FEB85B90000189B32C083B1D8
:10022000809581FD30C083B1809582FD2EC083B161
:10023000809583FD2CC08FE785B9000093B1909520
:10024000892F817090FD25C093B1909591FD23C0B9
:1002500093B1909592FD21C093B1909593FD1FC0ED
:10026000089581E3089582E3089583E3089581E486
:10027000089584E3089585E3089586E3089582E46C
:10028000089587E3089588E3089589E3089583E452
:1002900008958AE2089580E3089583E2089584E44E
:1002A000089581309105D1F03CF48F3F2FEF9207F4
:1002B00079F1892B49F0A4C08230910509F447C037
:1002C00083309105F9F09CC031E020E080919002EC
:1002D000813009F030E0832F922F14C080913A02D0
:1002E000813041F480938D028BB187788BB983E0A4
:1002F00090E083C0809139028F5F8093390282E061
:1003000090E07BC0009721F08130910501F175C02C
:1003100010923902109238028091220190E082D727
:100320007ED763E070E0E2D680933802811106C088
:1003300081E08093370280E090E05FC0813009F077
:1003400054C081E08093360280E090E056C040DFE8
:100350008093350290918502911127C0833429F54D
:10036000E0913802F0E0E95DFD4F8081803139F4A1
:10037000809136028130B1F480933A0216C0803207
:1003800039F480913702813069F480933A020DC0CC
:10039000803441F480913602811104C081E0809361
:1003A0003A0203C082E080938D0239D763E070E0A7
:1003B0009DD6809338029927FC01E95DFD4F80812D
:1003C0008BB980913702813041F48091390280FDF0
:1003D0000FC05F9A81E090E010C0809136028130BA
:1003E00051F45F9A81E090E008C080E090E005C0A1
:1003F00081E090E002C081E090E080939702089550
:100400008FEF9FEFFACF01968730910508F0B4C1C6
:100410008A5B9F4FFC019FC680919002813009F05A
:1004200061C080933202B9C180913102813039F4C8
:1004300067E271E0B4DE81E080938502C0C1809103
:100440003002813009F477C180913202813009F4A1
:1004500087C180918302813009F09FC1809385021A
:100460009CC180918C02909120018913A8C1909128
:100470002F028913A4C18823C1F020910701909114
:100480008602291741F004C031912D91321751F0A5
:10049000109206010FC0E8E0F1E0A7E8B2E090E0BA
:1004A000895F9E4FE817F90779F78091060181303F
:1004B00009F46DC163E371E081E071DE10923102F5
:1004C00010922F0281E0809306011092850265C18F
:1004D0001092300262C1109232025FC181E08093BB
:1004E0008F0255C110922F0280E090E04DC181E053
:1004F0008093310290E048C181E08093300290E027
:1005000043C181E08093320290E03EC181E080935C
:10051000830290E039C181E390E038DE80912F02C0
:10052000E82FF0E0E95FFE4F91E390838F5F8093C7
:100530002F0282E090E028C182E390E027DE8091E4
:100540002F02E82FF0E0E95FFE4F92E390838F5F88
:1005500080932F0282E090E017C183E390E016DEE3
:1005600080912F02E82FF0E0E95FFE4F93E3908344
:100570008F5F80932F0282E090E006C184E390E0D9
:1005800005DE80912F02E82FF0E0E95FFE4F94E353
:1005900090838F5F80932F0282E090E0F5C085E327
:1005A00090E0F4DD80912F02E82FF0E0E95FFE4F4C
:1005B00095E390838F5F80932F0282E090E0E4C008
:1005C00086E390E0E3DD80912F02E82FF0E0E95F21
:1005D000FE4F96E390838F5F80932F0282E090E03E
:1005E000D3C087E390E0D2DD80912F02E82FF0E0C6
:1005F000E95FFE4F97E390838F5F80932F0282E045
:1006000090E0C2C088E390E0C1DD80912F02E82F26
:10061000F0E0E95FFE4F98E390838F5F80932F02B5
:1006200082E090E0B1C089E390E0B0DD80912F02DC
:10063000E82FF0E0E95FFE4F99E390838F5F8093AE
:100640002F0282E090E0A0C081E490E09FDD8091E5
:100650002F02E82FF0E0E95FFE4F91E490838F5F77
:1006600080932F0282E090E08FC082E490E08EDDE4
:1006700080912F02E82FF0E0E95FFE4F92E4908333
:100680008F5F80932F0282E090E07EC083E490E051
:100690007DDD80912F02E82FF0E0E95FFE4F93E4CB
:1006A00090838F5F80932F0282E090E06DC084E49E
:1006B00090E06CDD80912F02E82FF0E0E95FFE4FC3
:1006C00094E490838F5F80932F0282E090E05CC07F
:1006D0008AE290E05BDD80912F02E82FF0E0E95F95
:1006E000FE4F9AE290838F5F80932F0282E090E02A
:1006F0004BC080E390E04ADD80912F02E82FF0E0CC
:10070000E95FFE4F90E390838F5F80932F0282E03A
:1007100090E03AC083E290E039DD80912F02E82F2B
:10072000F0E0E95FFE4F93E290838F5F80932F02AA
:1007300082E090E029C080918402813051F460E42D
:1007400071E02DDD8091960290E020DD83E090E065
:100750001BC067E471E081E022DD83E090E014C01B
:1007600066E571E081E01BDD8091210190E0C0969B
:100770000DDD84E090E008C08FEF9FEF05C081E0C1
:1007800090E002C082E090E080939A02089581E0B8
:1007900080938E0285E090E0F7CF1ADD80932E02E1
:1007A0008A3209F4A9CE20F4833209F4A0CEE7CF2F
:1007B000803309F4A6CE843409F4A8CEE0CF08DD56
:1007C00080932E0290E0FC01B397E232F105D0F65F
:1007D000E35BFF4FC0C48130910509F4ECC044F4E1
:1007E0008F3F2FEF920709F48FC0009769F009C07F
:1007F0008330910509F49FC08CF08430910509F491
:1008000097C08FEF9FEF94C020918302213009F0B1
:100810008FC06DE571E081E0C2DC8DC020912D02BA
:1008200030E080910501F901EE5EFD4F908198174F
:1008300009F461C0F901E35FFD4F9081891709F464
:100840005AC0F901E85FFD4F9081891709F453C040
:100850008031A9F480912C028F5F80932C02833029
:1008600009F069C081E080938402109283021092A3
:1008700085026FE671E093DC84E090E059C06FDCA4
:100880009AC080910401811142C08091050180517C
:100890008093050181E08093040110922B0282E095
:1008A00090E046C080912B02811134C080910501F7
:1008B000805F8093050181E080932B0210920401F8
:1008C00082E090E035C080910501982F9F7E9130A5
:1008D00021F181508093050182E090E029C0809150
:1008E00005018031E9F08032F1F08F5F80930501DE
:1008F00082E090E01DC06EE771E081E050DC109274
:100900002C0283E090E014C080E090E011C082E00F
:1009100090E00EC082E090E00BC082E090E008C062
:1009200082E090E005C082E090E002C082E090E0CA
:1009300080939C0208958091220190E073D46FD43B
:1009400065E070E0D3D380932D0206DCE0912D02A8
:10095000F0E0EE5EFD4F808102DCE0912D02F0E0E0
:10096000EE5EFD4F8081FBDB83E290E00FDCE091E7
:100970002D02F0E0E35FFD4F8081F1DB83E290E048
:1009800005DCE0912D02F0E0E85FFD4F8081E7DBC0
:1009900083E290E0FBDB80E1E2DB81E390E0F6DBE9
:1009A00081E0809305018093040110922B02D7DB34
:1009B00081E090E0BDCF0CDC80932A02843309F4FF
:1009C00082CF20F4823309F45CCFB0CF853309F4B1
:1009D00069CF863309F483CFA9CF813081F0E1EC70
:1009E000F0E0808188618083E2ECF0E080818660C5
:1009F000808383E38093C4001092C5000895E9ECDE
:100A0000F0E0808188618083EAECF0E0808186609C
:100A1000808383E38093CC001092CD0008958130D1
:100A200029F48091C800882384F008958091C00043
:100A30008823ACF4A6ECB0E0E0ECF0E08C9180937D
:100A4000400280818823D4F30895AEECB0E0E8EC56
:100A5000F0E08C918093400280818823D4F3089544
:100A6000613041F0E0ECF0E0908195FFFDCF8093A4
:100A7000C6000895E8ECF0E0908195FFFDCF8093EB
:100A8000CE0008958130910509F46BC03CF48F3F8E
:100A90002FEF920761F0892B79F0BFC0823091056A
:100AA00009F475C08330910509F4A2C0B6C06BE8A3
:100AB00071E081E074DBA9C080913F02813009F0D0
:100AC00047C08091220190E0ADD3A9D365E070E0EA
:100AD0000DD380933E029927FC01E75EFE4F808193
:100AE0008093960290918B0291110DC09AE590939C
:100AF0001F019FE090931E0193E090938C0295E07C
:100B0000909321011DC0913069F49CE390931F01E3
:100B10009AE090931E0194E090938D0293E090935D
:100B200021010EC0923061F49EE190931F0195E087
:100B300090931E0194E090938D0291E09093210197
:100B40009091C00095FF02C060E08ADF05DB68C0BD
:100B500080913D02813009F058C069EA71E01FDBE5
:100B60004AC080918F02813009F05AC080918E0274
:100B7000813031F461EC71E012DB83E090E038C049
:100B80006AEC71E081E00BDB83E090E031C08091A2
:100B90003D02811130C06BE871E081E000DB35C0BF
:100BA00081E080933F0280E090E022C081E080936A
:100BB0003D0280E090E01CC010928B0210923D023A
:100BC00082E090E015C081E080938B0210923D029C
:100BD00082E090E00DC082E080938B0210923D0293
:100BE00082E090E005C082E090E002C080E090E00A
:100BF000809398020895ECDA80933C02823419F3D2
:100C0000833449F3813479F7D7CFE2DA80933C0219
:100C1000813431F2823451F2E9CF8FEF9FEFE8CF88
:100C200081E08093900281E090E0E2CF813041F05A
:100C3000E0ECF0E080818823ECF78091C600089515
:100C4000E8ECF0E080818823ECF78091CE000895F5
:100C50008130910599F13CF48F3F2FEF9207D9F045
:100C6000892B41F08EC08230910559F08330910577
:100C700051F087C080918D028130A9F18230F1F46A
:100C80005EC080E090E020919002222309F471C0C0
:100C9000213019F413C083E090E08130910519F1FF
:100CA00024F4009709F072C009C08230910509F45C
:100CB00046C08330910509F069C060C08091C800CA
:100CC00088230CF061C081E0B1DF813019F480939A
:100CD0008D0204C0823011F480938D0281E09FDE8A
:100CE00080E090E053C09BD28F709078992324F4D9
:100CF0000197806F9F6F019680933402A091330219
:100D0000B0E0AA57BD4F9927FC01E95EFD4F8081F5
:100D10008C9310928D0265ED71E081E040DAE091F4
:100D20003302F0E0EA57FD4F808190E02FDA8091A6
:100D300033028F5F8093330281E090E027C080917F
:100D400021018150809321016BEE71E081E027DA6F
:100D50008091210190E0C09619DA10928D02809165
:100D60002101811109C081E080938F0282E090E02F
:100D700005C083E090E002C082E090E01092330270
:100D800005C08FEF9FEF02C080E090E08093990252
:100D9000089527E030E058E0E82FF0E058B948B176
:100DA000BF01022E02C0759567950A94E2F7962F4F
:100DB0009170942B98B9429A2150310978F7419A51
:100DC00018B80895CF93DF93009719F0019759F061
:100DD00012C091E080E020919002213009F090E073
:100DE000C92FD82F0AC080913B02863990F48F5FBB
:100DF00080933B020EC0C0E0D0E0209721F0C130CC
:100E0000D10509F506C080910C01C3DF10923B02A9
:100E10001AC0C0913B0260911E018C2F5BD19111D1
:100E200006C080910C01869580930C01B2DF809101
:100E30001F01C81306C081E080938F02C1E0D0E09B
:100E400002C0C1E0D0E0CE01DF91CF9108958BE0E8
:100E5000809381008DE790E09093890080938800D3
:100E600082E080936F001092850010928400809140
:100E7000230190912401A0912501B0912601809336
:100E8000910290939202A0939302B09394028FB731
:100E900080688FBF08951F920F920FB60F92112492
:100EA0008F939F93AF93BF93809191029091920201
:100EB000A0919302B09194020197A109B109809386
:100EC000910290939202A0939302B0939402892B83
:100ED0008A2B8B2B99F481E08093950280912301DA
:100EE00090912401A0912501B09126018093910257
:100EF00090939202A0939302B0939402BF91AF910A
:100F00009F918F910F900FBE0F901F9018958FEFAC
:100F100081B912B890EF94B99FE095B987B918B824
:100F20008AB91BB8E8E7F2E080830F2EFAE0CF2EF3
:100F3000D12CE12CF12CF02DC182D282E382F482FB
:100F4000158216821782108622E435E032872187C7
:100F5000EDE6F2E0808344E650E060E070E041833B
:100F6000528363837483158216821782108622EE61
:100F700036E032872187E2E6F2E080834EE150E0FE
:100F800060E070E04183528363837483158216822C
:100F90001782108621E531E032872187E7E5F2E00C
:100FA0008083418352836383748315821682178200
:100FB000108628E236E032872187ECE4F2E0808375
:100FC00044E150E060E070E04183528363837483C6
:100FD000158216821782108623E032E0328721873D
:100FE000E1E4F2E08083C182D282E382F48215825E
:100FF0001682178210868BEE93E09287818780E0BD
:10100000ECDC81E0EADCC0922301D0922401E09282
:101010002501F0922601C0929102D0929202E092B4
:101020009302F092940213DFA2D88091220190E003
:10103000F9D00F2EFDE0EF2EF1E0FF2EF02D09E1AB
:1010400011E086B1809580939B02E7015E01C88024
:10105000D980D60115964D915D916D917C9118972F
:1010600011968D919D910D90BC91A02D4817590717
:101070006A077B0789F4F60180810184F285E02DFF
:10108000082E000C990B0995D6018C93E881F98103
:101090001582168217821086D501ED91FC91229659
:1010A00085819681A781B0850196A11DB11D85839B
:1010B0009683A783B087C017D10741F68091950228
:1010C0008823E1F31092950280912201865F80933C
:1010D0002201B7CF991B79E004C0991F961708F039
:1010E000961B881F7A95C9F78095089597FB072E60
:1010F00016F4009406D077FD08D036D007FC05D052
:101100003EF4909581959F4F0895709561957F4F1E
:101110000895A1E21A2EAA1BBB1BFD010DC0AA1F38
:10112000BB1FEE1FFF1FA217B307E407F50720F050
:10113000A21BB30BE40BF50B661F771F881F991FCB
:101140001A9469F760957095809590959B01AC0114
:10115000BD01CF010895EE0FFF1F0024001C0BBE40
:101160000790F691E02D0994AA1BBB1B51E107C023
:10117000AA1FBB1FA617B70710F0A61BB70B881F27
:10118000991F5A95A9F780959095BC01CD010895B6
:101190008F929F92AF92BF92CF92DF92EF92FF9287
:1011A000CF93DF93EC01688179818A819B816115FE
:1011B00071058105910521F464E279ED8BE597E0F5
:1011C0002DE133EF41E050E038D049015A019B0155
:1011D000AC01A7EAB1E44DD06B017C01ACEEB4EFF9
:1011E000A501940152D0DC01CB018C0D9D1DAE1DDB
:1011F000BF1DB7FF03C00197A109B0488883998339
:10120000AA83BB839F77DF91CF91FF90EF90DF9010
:10121000CF90BF90AF909F908F900895B9CF80E00E
:1012200091E0B6CFA0E0B0E080930001909301017F
:10123000A0930201B09303010895052E97FB16F4C5
:1012400000940FD057FD05D064DF07FC02D046F4B0
:1012500008C050954095309521953F4F4F4F5F4FB7
:10126000089590958095709561957F4F8F4F9F4F12
:1012700008950FD0A59F900DB49F900DA49F800D51
:10128000911D11240895B7FFF4CFF3DF821B930B58
:101290000895A29FB001B39FC001A39F700D811D4F
:1012A0001124911DB29F700D811D1124911D08956F
:0412B000F894FFCFE0
:1012B4000100000001010130303030307F78026DD0
:1012C40002620257024C0241024142584D58051E27
:1012D40003030101000000496E70757420436F64BC
:1012E400653A0057726F6E6720496E7075742100FD
:1012F4004D6F64656C3A00416363657373204465A4
:101304006E6965642E004C697665733A00486163C2
:101314006B696E67204D6F64756C652E2E2E004DC3
:101324006F64756C65204861636B65642100486176
:10133400636B204661696C65642100412E20506C0A
:101344006179202020202020202020422E20446962
:1013540066666963756C747900412E204E6F726DF8
:10136400616C20202020202020422E2048617264BD
:1013740000596F752077696E210047616D65204FB4
:10138400766572210050757A7A6C6520446F6E65BB
:101394002120202020436F64653A0050757A7A6CCE
:1013A40065204661696C6564212020204C6976655E
:1013B40073204C6566743A000D1A1E030419111C3F
:1013C40015120205060A0C313233343536373839F2
:0A13D40030414243442A2340201018
:00000001FF
