:1000000067C0000082C0000080C000007EC0000009
:100010007CC000007AC0000078C0000076C00000FC
:1000200074C0000072C0000070C000006EC000000C
:100030006CC000008EC4000068C0000066C00000F4
:1000400064C0000062C0000060C000005EC000002C
:100050005CC000005AC0000058C0000056C000003C
:1000600054C0000052C0000050C000004EC000004C
:100070004CC000004AC0000048C0000046C000005C
:1000800044C0000042C0000040C000001F033A030B
:100090003A033A033A033A033A03FD023A033A03B6
:1000A0003A033A033A030E0320023102420253029A
:1000B0006402750286029702A8023A033A033A03E1
:1000C0003A033A033A033A03B902CA02DB02EC02EA
:1000D00011241FBECFEFD0E4DEBFCDBF11E0A0E002
:1000E000B1E0EEE2FDE000E00BBF02C007900D9230
:1000F000A239B107D9F721E0A2E9B1E001C01D9210
:10010000AF3EB207E1F761D410C67ACF18161906D0
:100110005CF00895000021503109E1F74F5F5F4F17
:100120004817590729F4089540E050E077E063E06C
:10013000272F362FEFCF469882B9479A000047986D
:1001400082E090E0E3CF089581E0F5CF089581311A
:1001500018F48158F0CF08958155EDCF089584E6C5
:1001600090E0D4DF88E3E7DF86E0E5DF8FE0E3DFE0
:1001700081E0E1DF8AE090E0C9CF0895469A82B934
:10018000479A0000479881E090E0C0CF08950F9310
:100190001F93CF93DF93182FEB01D6DF888188233D
:1001A00051F001E0010F812FD2DF8991E7DF102F9D
:1001B00088818111F6CFDF91CF911F910F91089522
:1001C000009751F01CF4019671F01FC08130910529
:1001D00029F0029799F019C0B7DF1CC08091E201A5
:1001E0008130C1F40BC068E171E081E0D0DF60E2F2
:1001F00071E081E1CCDF80E090E009C06EE271E067
:1002000081E0C5DF82E090E002C08FEF9FEF809336
:10021000EB01089581E08093E40190E0F8CF813014
:10022000910571F13CF48F3F2FEF920789F0892BF4
:10023000B1F006C08230910531F083309105E9F0CC
:100240008FEF9FEF1AC08091EE0184FF08C01BC0A2
:100250001092A3011092A20180E090E00EC01CD584
:1002600063E070E080D48093A2019927FC01E157FC
:10027000FE4F80818BB981E090E08093EA01089580
:1002800082E090E0FACF83E090E0F7CF8FEE85B97F
:100290000000189B44C083B1809581FD42C083B1AA
:1002A000809582FD40C083B1809583FD3EC08FED77
:1002B00085B90000189B3BC083B1809581FD39C092
:1002C00083B1809582FD37C083B1809583FD35C0B1
:1002D0008FEB85B90000189B32C083B1809581FDFA
:1002E00030C083B1809582FD2EC083B1809583FD9F
:1002F0002CC08FE785B9000093B19095892F81704C
:1003000090FD25C093B1909591FD23C093B1909538
:1003100092FD21C093B1909593FD1FC0089581E394
:10032000089582E3089583E3089581E4089584E3C2
:10033000089585E3089586E3089582E4089587E3A8
:10034000089588E3089589E3089583E408958AE28F
:10035000089580E3089583E2089584E40895813048
:100360009105C1F044F48F3F2FEF920709F459C073
:10037000892B51F07CC18330910509F44FC0C4F042
:10038000049709F48BC173C18091E401813009F0B5
:1003900048C08AC180919A01813021F467E371E0FD
:1003A000F6DE70C180919901813009F07DC158C19C
:1003B0008091120190911101891364C1909198016B
:1003C000953009F05FC18823C1F02091930190918D
:1003D000DD01291741F004C031912D91321751F000
:1003E000109204010FC0E4E9F1E0AEEDB1E090E05D
:1003F0008D569E4FE817F90779F7809104018130F7
:1004000009F44CC163E471E081E0C1DE10929A010D
:100410001092980181E08093040146C110929901E5
:1004200043C11092980180E090E029C181E080935F
:100430009A0190E024C181E08093990190E01FC16E
:1004400081E390E09BDE80919801E82FF0E0ED568B
:10045000FE4F91E390838F5F8093980182E090E05C
:100460000EC182E390E08ADE80919801E82FF0E0EF
:10047000ED56FE4F92E390838F5F8093980182E068
:1004800090E0FDC083E390E079DE80919801E82F51
:10049000F0E0ED56FE4F93E390838F5F80939801D9
:1004A00082E090E0ECC084E390E068DE8091980107
:1004B000E82FF0E0ED56FE4F94E390838F5F80933A
:1004C000980182E090E0DBC085E390E057DE809108
:1004D0009801E82FF0E0ED56FE4F95E390838F5F93
:1004E0008093980182E090E0CAC086E390E046DE07
:1004F00080919801E82FF0E0ED56FE4F96E390834F
:100500008F5F8093980182E090E0B9C087E390E02C
:1005100035DE80919801E82FF0E0ED56FE4F97E32D
:1005200090838F5F8093980182E090E0A8C088E379
:1005300090E024DE80919801E82FF0E0ED56FE4F28
:1005400098E390838F5F8093980182E090E097C05A
:1005500089E390E013DE80919801E82FF0E0ED56FA
:10056000FE4F99E390838F5F8093980182E090E043
:1005700086C081E490E002DE80919801E82FF0E0EF
:10058000ED56FE4F91E490838F5F8093980182E057
:1005900090E075C082E490E0F1DD80919801E82F51
:1005A000F0E0ED56FE4F92E490838F5F80939801C8
:1005B00082E090E064C083E490E0E0DD8091980107
:1005C000E82FF0E0ED56FE4F93E490838F5F809329
:1005D000980182E090E053C084E490E0CFDD809108
:1005E0009801E82FF0E0ED56FE4F94E490838F5F82
:1005F0008093980182E090E042C08AE290E0BEDD04
:1006000080919801E82FF0E0ED56FE4F9AE290833A
:100610008F5F8093980182E090E031C080E390E0AA
:10062000ADDD80919801E82FF0E0ED56FE4F90E3AC
:1006300090838F5F8093980182E090E020C083E2F6
:1006400090E09CDD80919801E82FF0E0ED56FE4FA0
:1006500093E290838F5F8093980182E090E00FC0D7
:1006600060E571E081E093DD83E090E008C08FEF0A
:100670009FEF05C082E090E002C081E090E08093AF
:10068000ED01089503DE8093920190E0FC01B397A1
:10069000E232F10578F7EA5BFF4F9AC281E080937E
:1006A000E20184E090E0EBCFF1DD809392018332B0
:1006B00009F4BCCE8A3209F4BECEDFCF813081F09E
:1006C000E1ECF0E0808188618083E2ECF0E0808101
:1006D0008660808383E38093C4001092C5000895F0
:1006E000E9ECF0E0808188618083EAECF0E08081D1
:1006F0008660808383E38093CC001092CD000895C0
:10070000813029F48091C800882384F00895809175
:10071000C0008823ACF4A6ECB0E0E0ECF0E08C91F3
:100720008093A50180818823D4F30895AEECB0E0D6
:10073000E8ECF0E08C918093A50180818823D4F3CC
:100740000895613041F0E0ECF0E0908195FFFDCF3D
:100750008093C6000895E8ECF0E0908195FFFDCF0E
:100760008093CE000895813041F0E0ECF0E080818C
:100770008823ECF78091C6000895E8ECF0E08081D2
:100780008823ECF78091CE000895009759F024F467
:10079000019609F44FC053C08130910569F002976A
:1007A00031F04DC080911301813031F413C080913C
:1007B000E401813009F03EC08091C80088230CF02C
:1007C00041C081E0D0DF81E08093130199DF80E0B8
:1007D00090E03AC061D28F709078992324F4019709
:1007E000806F9F6F01968093A101A091A001B0E05E
:1007F000A556BE4F9927FC01E158FE4F80818C938E
:10080000109213016EE571E081E0C1DCE091A0017E
:10081000F0E0E556FE4F808190E0B0DC80919C01D5
:1008200090E0ACDC8091A0018F5F8093A00181E01B
:1008300090E00AC01092A00182E090E005C08FEF26
:100840009FEF02C080E090E08093EC01089527E0E4
:1008500030E058E0E82FF0E058B948B1BF01022E6F
:1008600002C0759567950A94E2F7962F9170942BC4
:1008700098B9429A2150310978F7419A18B80895E9
:10088000CF930097A9F0019741F48091A401863994
:1008900078F48F5F8093A4010BC080910601D7DFAD
:1008A0001092A4018EE18093050180E090E02BC0BE
:1008B000C091A4018DECC89F812D11248695869549
:1008C000982F990F990F890FC81306C080910601C0
:1008D000869580930601BBDF80910501C81311C086
:1008E0008091C00085FF07C060E081E02ADF64E7F7
:1008F00071E081E04CDC81E08093E30181E090E0F5
:1009000002C081E090E0CF9108958BE08093810058
:100910008DE790E0909389008093880082E0809337
:100920006F001092850010928400809114019091C4
:100930001501A0911601B09117018093E5019093E4
:10094000E601A093E701B093E8018FB780688FBFFD
:1009500008951F920F920FB60F9211248F939F93B9
:10096000AF93BF938091E5019091E601A091E701DB
:10097000B091E8010197A109B1098093E501909335
:10098000E601A093E701B093E801892B8A2B8B2B1A
:1009900099F481E08093E90180911401909115010F
:1009A000A0911601B09117018093E5019093E601A3
:1009B000A093E701B093E801BF91AF919F918F9110
:1009C0000F900FBE0F901F9018958FEF81B912B83E
:1009D00090EF94B99FE095B99FEE97B990E198B9DF
:1009E0009FE19AB990EE9BB9E2EDF1E010820F2EF3
:1009F000FAE0CF2ED12CE12CF12CF02DC182D28245
:100A0000E382F482158216821782108620EE30E08F
:100A100032872187E7ECF1E0808344E650E060E034
:100A200070E0418352836383748315821682178238
:100A3000108620E434E032872187ECEBF1E08083FC
:100A40004EE150E060E070E0418352836383748341
:100A500015821682178210862FE031E032872187B7
:100A6000E1EBF1E0808341835283638374831582D9
:100A700016821782108625EC33E032872187E6EA5A
:100A8000F1E08083418352836383748315821682ED
:100A9000178210868FEA91E09287818780E00EDED0
:100AA00081E00CDEC0921401D0921501E092160193
:100AB000F0921701C092E501D092E601E092E701C1
:100AC000F092E80122DF4BDB86E090E0E8D007E01F
:100AD00011E00F2EF1E1EF2EF1E0FF2EF02D86B1A7
:100AE00080958093EE01E8015E01C880D980D6012F
:100AF00015964D915D916D917C91189711968D9100
:100B00009D910D90BC91A02D481759076A077B074E
:100B100089F4F60180810184F285E02D082E000C15
:100B2000990B0995D6018C93E881F981158216827B
:100B300017821086D501ED91FC91229685819681D0
:100B4000A781B0850196A11DB11D85839683A783DA
:100B5000B087CE15DF0541F68091E9018823E1F3E6
:100B60001092E901BCCF97FB072E16F4009406D033
:100B700077FD08D036D007FC05D03EF490958195DE
:100B80009F4F0895709561957F4F0895A1E21A2EA9
:100B9000AA1BBB1BFD010DC0AA1FBB1FEE1FFF1F21
:100BA000A217B307E407F50720F0A21BB30BE40B71
:100BB000F50B661F771F881F991F1A9469F76095B8
:100BC0007095809590959B01AC01BD01CF01089572
:100BD000EE0FFF1F0024001C0BBE0790F691E02DC6
:100BE0000994AA1BBB1B51E107C0AA1FBB1FA61774
:100BF000B70710F0A61BB70B881F991F5A95A9F7C6
:100C000080959095BC01CD0108958F929F92AF92EF
:100C1000BF92CF92DF92EF92FF92CF93DF93EC01DE
:100C2000688179818A819B816115710581059105B2
:100C300021F464E279ED8BE597E02DE133EF41E0BB
:100C400050E038D049015A019B01AC01A7EAB1E458
:100C50004DD06B017C01ACEEB4EFA501940152D0F4
:100C6000DC01CB018C0D9D1DAE1DBF1DB7FF03C068
:100C70000197A109B04888839983AA83BB839F7792
:100C8000DF91CF91FF90EF90DF90CF90BF90AF902A
:100C90009F908F900895B9CF80E091E0B6CFA0E00B
:100CA000B0E08093000190930101A0930201B09302
:100CB00003010895052E97FB16F400940FD057FDFD
:100CC00005D064DF07FC02D046F408C0509540957B
:100CD000309521953F4F4F4F5F4F089590958095E8
:100CE000709561957F4F8F4F9F4F08950FD0A59FAF
:100CF000900DB49F900DA49F800D911D1124089517
:100D0000B7FFF4CFF3DF821B930B0895A29FB001CE
:100D1000B39FC001A39F700D811D1124911DB29F2F
:0E0D2000700D811D1124911D0895F894FFCFD0
:100D2E0001000000011E7FD201C701BC01B101A666
:100D3E000105050101000000412E20506C61790073
:100D4E00422E20446966666963756C747900596F2A
:100D5E00752077696E2100496E70757420436F643B
:100D6E00653A0057726F6E6720496E707574210078
:100D7E0044657461696C7320486572652E00507508
:100D8E007A7A6C6520446F6E652120202020436F97
:100D9E0064653A0047616D65204F766572210031BA
:100DAE00323334353637383930414243442A2304FE
:020DBE0008101B
:00000001FF
