:1000000053C000006EC000006CC000006AC0000059
:1000100068C0000066C0000064C0000062C000004C
:1000200060C000005EC000005CC000005AC000005C
:1000300058C0000005C1000054C0000052C00000BC
:1000400050C000004EC000004CC000004AC000007C
:1000500048C0000046C0000044C0000042C000008C
:1000600040C000003EC000003CC000003AC000009C
:1000700038C0000036C0000034C0000032C00000AC
:1000800030C000002EC000002CC00000F9010602A4
:100090000A0218022B02430243024F025E02780258
:1000A000A502B102DE02F80211241FBECFEFD0E498
:1000B000DEBFCDBF11E0A0E0B1E0E4ECF8E000E08D
:1000C0000BBF02C007900D92A431B107D9F721E010
:1000D000A4E1B1E001C01D92A433B207E1F7C7D299
:1000E000EFC38ECF813081F0E1ECF0E08081886158
:1000F0008083E2ECF0E080818660808383E38093FC
:10010000C4001092C5000895E9ECF0E08081886198
:100110008083EAECF0E080818660808383E38093D3
:10012000CC001092CD000895813029F48091C80050
:10013000882384F008958091C0008823ACF4A6EC55
:10014000B0E0E0ECF0E08C91809316018081882390
:10015000D4F30895AEECB0E0E8ECF0E08C9180933D
:10016000160180818823D4F30895613041F0E0ECDA
:10017000F0E0908195FFFDCF8093C6000895E8ECF4
:10018000F0E0908195FFFDCF8093CE0008958130FF
:1001900041F0E0ECF0E080818823ECF78091C6002C
:1001A0000895E8ECF0E080818823ECF78091CE00A0
:1001B000089580E480937C0087E880937A00089516
:1001C000ECE7F0E09081282F2F71987F922B90839D
:1001D000EBE7F0E0908180729F7D892B8083EAE7D6
:1001E000F0E0808180648083808186FDFDCF8091F6
:1001F00078009091790008958BE0809381008DE7DD
:1002000090E0909389008093880082E080936F0053
:10021000109285001092840080910E0190910F0140
:10022000A0911001B09111018093220190932301BC
:10023000A0932401B09325018FB780688FBF0895E4
:100240001F920F920FB60F9211248F939F93AF932B
:10025000BF938091220190912301A0912401B0913C
:1002600025010197A109B1098093220190932301EF
:10027000A0932401B0932501892B8A2B8B2B99F411
:1002800081E08093260180910E0190910F01A09151
:100290001001B09111018093220190932301A0934A
:1002A0002401B0932501BF91AF919F918F910F9041
:1002B0000FBE0F901F90189580912B01813071F027
:1002C00028F0823071F1833069F045C080912701B8
:1002D000813009F04BC080932B014BC083E08093A9
:1002E0002B01089580912A01E0912D01F0E0E55F56
:1002F000FE4F9081981309C081E080932B0180917B
:1003000015018F5F8093150129C0833008F460C008
:10031000803209F45DC082E080932B0110921501B8
:100320001DC080911401883081F483E080932B01FB
:100330001092140188B1E0912D01F0E0E55FFE4FCD
:10034000837E9081892B88B909C08830B0F58F5F92
:100350008093140103C010922B0108C080912B01DF
:10036000813039F018F0823041F108951092150172
:1003700008958091120190E03BD237D263E070E0A3
:10038000BDD180932D0120911501253059F488B1FC
:100390008C6188B98091C80085FF1AC061E081E056
:1003A000E4CE089528B19927FC01E55FFE4F822F26
:1003B000837E9081892B88B908958091140180FDF6
:1003C00004C088B18C6188B9089588B1837E88B9EA
:1003D00008950F931F93CF93DF93E09133018E2FF6
:1003E00090E08730910508F04BC0FC01EA5BFF4FBD
:1003F00098C180912A01803209F051C08091270173
:10040000813009F04CC08093330158C082E0809362
:1004100033016EC090911B0180910601981708F47A
:1004200067C0891708F064C084E08093330199C0E5
:1004300080911E01883041F41092330110921E0108
:1004400088B18C7188B91FC0883008F07EC08F5F7A
:1004500080931E0118C080912A01803209F4AEC039
:1004600080911C01843009F07CC086E080933301C8
:100470008091C80085FFBCC061E081E076DE03C0EA
:10048000109233010CC0E09133018E2F90E0873041
:10049000910508F0B0C0FC01E35BFF4F42C1109230
:1004A0001B0110921C011092210110922001109248
:1004B0001F0110921D0110921E019DC0809112011A
:1004C00090E096D1CEE2D1E002E311E08ED18370CC
:1004D0009078992324F401978C6F9F6F0196FC010B
:1004E000E95FFE4F80818993C017D10779F783C0F8
:1004F00080911D018431D1F488B1E0911B01F0E0BD
:10050000E25DFE4F8C719081892B88B910921D019C
:1005100080911B018F5F80931B01909106019817BA
:1005200008F069C088B18C7188B965C08A3049F417
:1005300088B18C7188B980911D018F5F80931D01F6
:100540005AC08F5F80931D0156C080911E0180FDAF
:1005500004C088B1836E88B94EC088B18C7188B9E7
:100560004AC080E090E02CDE90931A01809319013C
:1005700081E090E025DE909318018093170120918F
:100580000401309105018217930719F0803E9340D2
:1005900090F180911F01833019F410921F0103C064
:1005A0008F5F80931F0188B1E0911F01F0E0E95F48
:1005B000FE4F8C719081892B88B91DC080911C01E0
:1005C000E0911F01F0E0E95FFE4FA82FB0E0A25DCF
:1005D000BE4F20819C91291307C08F5F80931C011F
:1005E00084E08093330107C083E08093330103C02C
:1005F00088B1836E88B9DF91CF911F910F910895D3
:10060000809128018111109228018091C0008823D7
:1006100074F480E0BCDD823031F091E090932701EA
:100620008093320102C01092270180E07DCD0895B1
:1006300080912C01813099F018F08230A9F007C028
:1006400080912701813081F480932C0108C01092A1
:100650002C010AC08FEF88B907C018B805C0809177
:10066000290180FFFACFF6CF80E090E0089511B81D
:100670008FEF82B914B885B987B918B88AB98BB920
:1006800080E030DD81E02EDD94DD80E04DDD84E62C
:1006900090E0A0E0B0E080930E0190930F01A09352
:1006A0001001B09311018093220190932301A09334
:1006B0002401B0932501A0DD8091120190E098D033
:1006C00010922B01109233011092280180B1809575
:1006D00080932A0183B1809580932901EDDD79DE35
:1006E0008FDFA6DF809126018823E1F31092260197
:1006F00080911201865F80931201E8CF97FB072E4D
:1007000016F4009406D077FD08D014D007FC05D06D
:100710003EF4909581959F4F0895709561957F4F18
:100720000895EE0FFF1F0024001C0BBE0790F691EA
:10073000E02D0994AA1BBB1B51E107C0AA1FBB1FD8
:10074000A617B70710F0A61BB70B881F991F5A955D
:10075000A9F780959095BC01CD0108958F929F9245
:10076000AF92BF92CF92DF92EF92FF92CF93DF933F
:10077000EC01688179818A819B8161157105810510
:10078000910521F464E279ED8BE597E02DE133EFFB
:1007900041E050E038D049015A019B01AC01A7EA81
:1007A000B1E44DD06B017C01ACEEB4EFA501940136
:1007B00052D0DC01CB018C0D9D1DAE1DBF1DB7FFBE
:1007C00003C00197A109B04888839983AA83BB839A
:1007D0009F77DF91CF91FF90EF90DF90CF90BF9008
:1007E000AF909F908F900895B9CF80E091E0B6CF01
:1007F000A0E0B0E08093000190930101A09302017A
:10080000B09303010895052E97FB16F400940FD0C2
:1008100057FD05D024D007FC02D046F408C05095FF
:100820004095309521953F4F4F4F5F4F08959095DC
:100830008095709561957F4F8F4F9F4F089531D070
:10084000A59F900DB49F900DA49F800D911D112424
:100850000895B7FFF4CFF3DF821B930B0895A1E255
:100860001A2EAA1BBB1BFD010DC0AA1FBB1FEE1F2A
:10087000FF1FA217B307E407F50720F0A21BB30B75
:10088000E40BF50B661F771F881F991F1A9469F7F1
:1008900060957095809590959B01AC01BD01CF014D
:1008A0000895A29FB001B39FC001A39F700D811D49
:1008B0001124911DB29F700D811D1124911D089569
:0408C000F894FFCFDA
:1008C40001000000FF03040201204004081001009D
:0408D400000001001F
:00000001FF
