:1000000053C000006EC000006CC000006AC0000059
:1000100068C0000066C0000064C0000062C000004C
:1000200060C000005EC000005CC000005AC000005C
:1000300058C0000005C1000054C0000052C00000BC
:1000400050C000004EC000004CC000004AC000007C
:1000500048C0000046C0000044C0000042C000008C
:1000600040C000003EC000003CC000003AC000009C
:1000700038C0000036C0000034C0000032C00000AC
:1000800030C000002EC000002CC000001D02320253
:100090003602440257026F026F027B028A02BC02E0
:1000A000E902F5022203410311241FBECFEFD0E481
:1000B000DEBFCDBF11E0A0E0B1E0E2E4FAE000E095
:1000C0000BBF02C007900D92A431B107D9F721E010
:1000D000A4E1B1E001C01D92AC33B207E1F786D3D1
:1000E000AEC48ECF813081F0E1ECF0E08081886198
:1000F0008083E2ECF0E080818660808383E38093FC
:10010000C4001092C5000895E9ECF0E08081886198
:100110008083EAECF0E080818660808383E38093D3
:10012000CC001092CD000895813029F48091C80050
:10013000882384F008958091C0008823ACF4A6EC55
:10014000B0E0E0ECF0E08C9180931701808188238F
:10015000D4F30895AEECB0E0E8ECF0E08C9180933D
:10016000170180818823D4F30895613041F0E0ECD9
:10017000F0E0908195FFFDCF8093C6000895E8ECF4
:10018000F0E0908195FFFDCF8093CE0008958130FF
:1001900041F0E0ECF0E080818823ECF78091C6002C
:1001A0000895E8ECF0E080818823ECF78091CE00A0
:1001B000089580E480937C0087E880937A00089516
:1001C000ECE7F0E09081282F2F71987F922B90839D
:1001D000EBE7F0E0908180729F7D892B8083EAE7D6
:1001E000F0E0808180648083808186FDFDCF8091F6
:1001F00078009091790008958BE0809381008DE7DD
:1002000090E0909389008093880082E080936F0053
:10021000109285001092840080910F01909110013E
:10022000A0911101B09112018093260190932701B2
:10023000A0932801B09329018FB780688FBF0895DC
:100240001F920F920FB60F9211248F939F93AF932B
:10025000BF938091260190912701A0912801B09130
:1002600029010197A109B1098093260190932701E3
:10027000A0932801B0932901892B8A2B8B2B99F409
:1002800081E080932A0180910F0190911001A0914B
:100290001101B09112018093260190932701A09340
:1002A0002801B0932901BF91AF919F918F910F9039
:1002B0000FBE0F901F90189580912F01823009F486
:1002C0005FC028F4882349F0813079F073C083300F
:1002D00081F0843009F471C06DC080912B018130B0
:1002E00009F073C080932F0173C083E080932F01C6
:1002F00008959091160180910B0198130EC084E02F
:1003000080932F0188B18C6188B98091C80085FFE6
:1003100054C061E081E029DF50C080913A0182340D
:1003200011F0883559F4809124018F5F8093240166
:10033000837021F481E080932F014AC080912E01C7
:10034000E0913501F0E0E45FFE4F2081281307C003
:1003500081E080932F019F5F909316012EC0833020
:1003600010F0803221F483E080932F01089581E022
:100370008093250182E080932F01109216011DC009
:1003800080911501883081F483E080932F011092D1
:10039000150188B1E0913501F0E0E45FFE4F837E06
:1003A0009081892B88B909C0883038F58F5F809398
:1003B000150103C010922F0108C080912F018130D8
:1003C00039F018F08230C9F008951092160108959E
:1003D0008091130190E0CBD2C7D263E070E04DD2A0
:1003E0008093350128B19927FC01E45FFE4F822FED
:1003F000837E9081892B88B908958091150180FDB5
:1004000004C088B18C6188B9089588B1837E88B9A9
:100410000895CF92DF92EF92FF920F931F93CF93A5
:10042000DF93E0913B018E2F90E08730910508F03B
:1004300053C0FC01EA5BFF4F33C280912E01803232
:1004400009F059C080912B01813009F054C080938C
:100450003B0180913A01883509F05CC081E08093CE
:100460001C013DC082E080933B0186C090911D013C
:1004700080910601981708F47FC0891708F07CC0A6
:1004800084E080933B01B1C080912001883041F429
:1004900010923B011092200188B18C7188B91FC065
:1004A000883008F096C08F5F8093200118C080913B
:1004B0002E01803209F4C6C080911E01843009F0FB
:1004C00094C086E080933B018091C80085FFD9C02D
:1004D00061E081E04ADE03C010923B010CC0E09174
:1004E0003B018E2F90E08730910508F0CDC0FC01D4
:1004F000E35BFF4FD5C110921D0110921E011092B7
:100500002301109222011092210110921F011092DA
:100510002001BAC08091130190E029D20F2EF1E39F
:10052000EF2EF1E0FF2EF02DC6E3D1E005E311E060
:10053000C12CD12C19D283709078992324F401977F
:100540008C6F9F6F0196FC0120911C01820F911D01
:100550008430910511F48C2D9D2DE95FFE4F208193
:10056000F70121937F01FC01E95FFE4F80818993B0
:10057000E016F106F9F688C080911F018431D1F4AC
:1005800088B1E0911D01F0E0EF5CFE4F8C7190812D
:10059000892B88B910921F0180911D018F5F809374
:1005A0001D0190910601981708F06EC088B18C71FA
:1005B00088B96AC08A3049F488B18C7188B9809151
:1005C0001F018F5F80931F015FC08F5F80931F01AA
:1005D0005BC08091200180FD04C088B1836E88B922
:1005E00053C088B18C7188B94FC080E090E0E8DDDD
:1005F00090931B0180931A0181E090E0E1DD9093DC
:10060000190180931801209104013091050182178E
:10061000930719F0803E9340B8F180912101833017
:1006200019F41092210103C08F5F8093210188B1DA
:10063000E0912101F0E0E95FFE4F8C719081892B00
:1006400088B922C080911E01E0912101F0E0E95FAC
:10065000FE4FA82FB0E0AA5CBE4F20819C912913C9
:1006600007C08F5F80931E0184E080933B010CC024
:1006700010921E0181E08093250183E080933B016D
:1006800003C088B1836E88B9DF91CF911F910F911C
:10069000FF90EF90DF90CF90089580912C018823F8
:1006A00019F010922C0120C0809125018130E1F4D5
:1006B00080932C01109225018091C80085FF18C0FD
:1006C0000FC080E064DD823031F091E090932B0127
:1006D00080933A0102C010922B0180E025DD08C012
:1006E00061E082E042DD04C08091C00088234CF3C9
:1006F00080E090E0089580913001813061F018F041
:10070000823029F121C080912B01813009F06DC028
:100710008093300121C0809114018823E9F0813059
:1007200059F482E0809330018091C80085FF5DC05C
:1007300061E081E01ADD0BC0823071F480933001FA
:1007400081E08093250103C01092300108958091CB
:100750003001813009F049C080913A01813481F43F
:1007600080912D0180FF02C083FD04C082E0809350
:10077000140108958930C9F581E08093140108952A
:10078000823471F480912D0181FD04C082E0809358
:1007900014010895823049F581E080931401089591
:1007A000883591F480912D0180FF04C0982F9C70B2
:1007B0009C3021F082E08093140108958D30A9F4DB
:1007C00081E08093140108958D3479F480912D0196
:1007D00080FF02C084FD04C082E08093140108956C
:1007E000813119F481E080931401089511B88FEFDD
:1007F00082B914B885B987B918B88AB98BB980E0BD
:1008000071DC81E06FDCD5DC80E08EDC84E690E09A
:10081000A0E0B0E080930F0190931001A09311012C
:10082000B09312018093260190932701A093280191
:10083000B0932901E1DC8091130190E098D01092EF
:100840002F0110923B0110922C0180B18095809372
:100850002E0183B1809580932D012EDDDADD1DDF21
:100860004ADF80912A018823E1F310922A018091C6
:100870001301865F80931301E8CF97FB072E16F4D0
:10088000009406D077FD08D014D007FC05D03EF4C4
:10089000909581959F4F0895709561957F4F08952C
:1008A000EE0FFF1F0024001C0BBE0790F691E02DF9
:1008B0000994AA1BBB1B51E107C0AA1FBB1FA617A7
:1008C000B70710F0A61BB70B881F991F5A95A9F7F9
:1008D00080959095BC01CD0108958F929F92AF9223
:1008E000BF92CF92DF92EF92FF92CF93DF93EC0112
:1008F000688179818A819B816115710581059105E6
:1009000021F464E279ED8BE597E02DE133EF41E0EE
:1009100050E038D049015A019B01AC01A7EAB1E48B
:100920004DD06B017C01ACEEB4EFA501940152D027
:10093000DC01CB018C0D9D1DAE1DBF1DB7FF03C09B
:100940000197A109B04888839983AA83BB839F77C5
:10095000DF91CF91FF90EF90DF90CF90BF90AF905D
:100960009F908F900895B9CF80E091E0B6CFA0E03E
:10097000B0E08093000190930101A0930201B09335
:1009800003010895052E97FB16F400940FD057FD30
:1009900005D024D007FC02D046F408C050954095FD
:1009A000309521953F4F4F4F5F4F0895909580951B
:1009B000709561957F4F8F4F9F4F089531D0A59FC0
:1009C000900DB49F900DA49F800D911D112408954A
:1009D000B7FFF4CFF3DF821B930B0895A1E21A2E29
:1009E000AA1BBB1BFD010DC0AA1FBB1FEE1FFF1FD3
:1009F000A217B307E407F50720F0A21BB30BE40B23
:100A0000F50B661F771F881F991F1A9469F7609569
:100A10007095809590959B01AC01BD01CF01089523
:100A2000A29FB001B39FC001A39F700D811D11242F
:100A3000911DB29F700D811D1124911D0895F89490
:020A4000FFCFE6
:100A420001000000FF0304020120400A0408100113
:040A5200000000019F
:00000001FF
