:1000000045C0000060C000005EC000005CC0000091
:100010005AC0000058C0000056C0000054C0000084
:1000200052C0000050C000004EC000004CC0000094
:100030004AC00000D4C0000046C0000044C0000018
:1000400042C0000040C000003EC000003CC00000B4
:100050003AC0000038C0000036C0000034C00000C4
:1000600032C0000030C000002EC000002CC00000D4
:100070002AC0000028C0000026C0000024C00000E4
:1000800022C0000020C000001EC0000011241FBEBE
:10009000CFEFD0E4DEBFCDBF11E0A0E0B1E0E0E8FB
:1000A000F5E000E00BBF02C007900D92AC30B10745
:1000B000D9F721E0ACE0B1E001C01D92A731B20751
:1000C000E1F740D15BC29CCF813081F0E1ECF0E000
:1000D000808188618083E2ECF0E0808186608083AB
:1000E00083E38093C4001092C5000895E9ECF0E02A
:1000F000808188618083EAECF0E080818660808383
:1001000083E38093CC001092CD000895813029F4D0
:100110008091C800882384F008958091C0008823CE
:10012000ACF4A6ECB0E0E0ECF0E08C9180930E0132
:1001300080818823D4F30895AEECB0E0E8ECF0E0E1
:100140008C9180930E0180818823D4F308956130CF
:1001500041F0E0ECF0E0908195FFFDCF8093C60088
:100160000895E8ECF0E0908195FFFDCF8093CE00FC
:100170000895813041F0E0ECF0E080818823ECF7D5
:100180008091C6000895E8ECF0E080818823ECF7C8
:100190008091CE0008958BE0809381008DE790E000
:1001A000909389008093880082E080936F00109282
:1001B0008500109284008091070190910801A09120
:1001C0000901B0910A0180930F0190931001A0934F
:1001D0001101B09312018FB780688FBF08951F92ED
:1001E0000F920FB60F9211248F939F93AF93BF93EB
:1001F00080910F0190911001A0911101B091120115
:100200000197A109B10980930F0190931001A09368
:100210001101B0931201892B8A2B8B2B99F481E069
:10022000809313018091070190910801A091090129
:10023000B0910A0180930F0190931001A0931101D6
:10024000B0931201BF91AF919F918F910F900FBE0C
:100250000F901F90189580911501813051F028F072
:10026000823039F1833049F03BC081E08093150141
:1002700045C083E080931501089580911401E091B9
:100280001601F0E0EC5FFE4F9081981309C081E009
:100290008093150180910D018F5F80930D0123C024
:1002A000882309F44EC082E08093150110920D015D
:1002B0001AC080910C01883069F483E080931501A5
:1002C00010920C01E0911601F0E0EC5FFE4F80818E
:1002D00088B909C0883068F58F5F80930C0103C02E
:1002E0001092150108C080911501813039F018F085
:1002F0008230F9F0089510920D010895D4D063E092
:1003000070E063D08093160120910D01253051F4E7
:100310008FEF88B98091C80085FF13C061E081E04C
:1003200016CF08959927FC01EC5FFE4F808188B9B4
:10033000089580910C0180FD03C08FEF88B9089566
:1003400018B8089511B88FEF82B987B918B88AB96B
:100350008BB980E0B9DE81E0B7DE80E0D7DE84E6ED
:1003600090E0A0E0B0E08093070190930801A09393
:100370000901B0930A0180930F0190931001A0939B
:100380001101B093120107DF80910B0190E08ED034
:1003900010921501C0ECD0E080B1809580931401DB
:1003A0005ADF888188232CF480E0E3DE82B980E084
:1003B000ADDE809113018823E1F310921301809147
:1003C0000B01865F80930B01E7CF97FB072E16F496
:1003D000009406D077FD08D00BD007FC05D03EF482
:1003E000909581959F4F0895709561957F4F0895E1
:1003F000AA1BBB1B51E107C0AA1FBB1FA617B7074B
:1004000010F0A61BB70B881F991F5A95A9F7809566
:100410009095BC01CD0108958F929F92AF92BF92AB
:10042000CF92DF92EF92FF92CF93DF93EC0168813E
:1004300079818A819B81611571058105910521F47E
:1004400064E279ED8BE597E02DE133EF41E050E098
:1004500038D049015A019B01AC01A7EAB1E44DD063
:100460006B017C01ACEEB4EFA501940152D0DC012C
:10047000CB018C0D9D1DAE1DBF1DB7FF03C00197A5
:10048000A109B04888839983AA83BB839F77DF91B2
:10049000CF91FF90EF90DF90CF90BF90AF909F9063
:1004A0008F900895B9CF80E091E0B6CFA0E0B0E0A2
:1004B0008093000190930101A0930201B093030186
:1004C0000895052E97FB16F400940FD057FD05D024
:1004D00024D007FC02D046F408C0509540953095D2
:1004E00021953F4F4F4F5F4F0895909580957095A0
:1004F00061957F4F8F4F9F4F089531D0A59F900DED
:10050000B49F900DA49F800D911D11240895B7FFF5
:10051000F4CFF3DF821B930B0895A1E21A2EAA1BDE
:10052000BB1BFD010DC0AA1FBB1FEE1FFF1FA217A3
:10053000B307E407F50720F0A21BB30BE40BF50BA0
:10054000661F771F881F991F1A9469F76095709529
:10055000809590959B01AC01BD01CF010895A29FAC
:10056000B001B39FC001A39F700D811D1124911D87
:10057000B29F700D811D1124911D0895F894FFCF35
:0C05800001000000040810010000000150
:00000001FF
